:03000000020F707C
:0C0F7000787FE4F6D8FD758122020FB7EF
:1015BF001214B9300E05C20E12071C300FF5C20FF0
:0B15CF00120026120E5212050E80E8DA
:100BDE00C10AC109C10B4100B2004100B1FF410081
:070BEE00A8004200AF000067
:101677007E03EFA2E39281C28225E0FFD2821EC3DE
:07168700EE6480948050EB3B
:01168E002239
:0B08F700900089EBF0A3EAF0A3E9F009
:10090200200A03020A22200B6A900089E0FBA3E07E
:10091200FAA3E0F99000051200CFFF9000B1E06F5A
:100922007003020A1E90008C7405F090008CE0FFA8
:10093200C3648094804022900089E0FBA3E0FAA384
:10094200E0F9EF3395E08F82F5831200CFFF1216A4
:100952007790008CE014F080D2B286900089E0FBA0
:10096200A3E0FAA3E0F99000051200CF9000B1F0E5
:10097200020A1E9000AFE475F0011201CDFEE5F00F
:10098200640C4E70309000AFF0A3F01212967C000F
:100992007D091201979000A8E0FE24A9F582E434B3
:1009A20000F583EDF0EEC3940650089000A8E00431
:1009B200F08002D286E490008CF09000A8E0FF90D4
:1009C200008CE0FDFB3395E0FAC3EB9F7480F86A7C
:1009D20098501DEDFF3395E0FE74A92FF582740047
:1009E2003EF583E0FF12167790008CE004F080CA97
:1009F20090008C7406F09000A8E0FF90008CE0FD5F
:100A02003395E0FCD3ED9F7480F86C98400E12127F
:100A12009612167790008CE014F080DAC283D283AB
:010A220022B1
:1014E900E4FD7F0F1216770DEDB406F6C283D283A1
:1014F900C20AC209C20BE49000C4F0C2869000B1CE
:0E15090074FFF0E49000A8F09000AFF0A3F0A3
:0115170022B1
:1015DA00300A129000B2E0C394E65004E004F0220C
:0B15EA001214E98000E49000B2F0222F
:1002F3000000020B024B029302BA0310037003DCEB
:100303000417049705270575062006E007B80106BC
:100313000126014A015D018801B801EE01020301D2
:100323000001020301030405030405000506050497
:100333000301050605040301000113010001130174
:100343002318181817011818181818183018182F08
:10035300010C0C0C0C18180C0C0C0C1817011818A9
:100363002F011818300100010005000500060006E2
:100373000005040004000300030002000200011949
:100383000B010B010B010B010B010B01180B010BF3
:10039300010B010B010B010B011805000500050002
:1003A3000500060504030201080008000800080907
:1003B30000090008050600060708070605000500F2
:1003C30005000608030200020002000600060005FD
:1003D30004030201020300030003000300020002FE
:1003E30000010001000500050005000600050403E7
:1003F30002080008000800080007000700060005BF
:1004030000060706090009000800070605000500A5
:1004130005000608030200020002000600060005AC
:10042300000500050003020113010001020313008C
:100433001300130013000200020002000203020370
:100443000201151413001300130200021415011402
:100453001501B70B01110105010B010C1818181830
:1004630030110105010B010C0B010B011860170181
:100473000C0C180C0C0B01050105010C0C300B01C5
:10048300050105010B010B010C06060C0C601101A3
:1004930005010B010B010B010B010B010B011101F9
:1004A30005010B010B010C0C0C0C110105010B01D7
:1004B3000B010B010B010B010B01240C301701176E
:1004C3000117010C0C0B01050105010C0C300B018C
:1004D300050105010B010B010B01050105010C0CC5
:1004E30060181701181860110105010B010B010BAE
:1004F30001050105010C0C6018181818600B011791
:0B050300010C1101060C0C603030C030
:0C0BF5004100B3004100B800C18DC10CEC
:1015180025E024F3F582E43402F583E493FE7401B4
:0215280093FF2F
:10152A00AB07AA06E4F9F8FF7E107D0EFC12132B16
:0A153A00C3E49FFFE49E8FD5F5D4B3
:011544002284
:101645005389F0D2AF758D88758BA4D2ABD28E53EA
:09165500D1F043D10843AF20227B
:0F17270053D1F7C20CD20DE49000B3F0D2802260
:100D2C00D20CEF24FE602514604024027058900011
:100D3C00B474FFF0A37403F0A37443F09000B9747F
:100D4C00FFF0A37403F0A3741FF0803A9000B47406
:100D5C00FFF0A37403F0A37482F09000B974FFF059
:100D6C00A37403F0A37468F0801C9000B474FFF0BB
:100D7C00A37404F0A37455F09000B974FFF0A3743D
:100D8C0003F0A3749DF09000B4E0FBA3E475F001B4
:100D9C001201CDA9F0FA1200B69000B7F09000B98C
:100DAC00E0FBA3E0FAA3E0F91200B6121518C20D8D
:030DBC00021645D7
:03009B000200065A
:03000600B2803293
:03001B00020EE3EF
:100EE300C0E0C0F0C083C082C0D075D000C000C0D5
:100EF30001C002C003C004C005C006C0079000B80B
:100F0300E004F09000B4E0FBA3E0FAA3E0F9900062
:100F1300B3E0F5827583001200CFFF9000B8E06F55
:100F23007030F09000B3E004F09000B7E0FF900061
:100F3300B3E0FED39F400512172780169000B9E057
:100F4300FBA3E0FAA3E0F98E827583001200CF12AF
:100F53001518D007D006D005D004D003D002D00195
:0D0F6300D000D0D0D082D083D0F0D0E032CA
:1015F5007E01EE60135F7004C2938002D293D29590
:0A160500C295EE25E0FE80EAD293C4
:01160F0022B8
:10168F00E4FF7E01EE600F3093024FFFD295C295BB
:06169F00EE25E0FE80EEE6
:0116A5002222
:1016A600C292C295D292EF25E04480FF1215F5AFA3
:0716B600051215F5C2922296
:0B141E009000CFEBF0A3EAF0A3E9F090
:10142900C292C295D2927FBE1215F5E4FD9000CF0B
:10143900E0FBA3E0FAA3E0F98D827583001200CFE7
:0B144900FF1215F50DEDB408E4C2928F
:011454002275
:10161000C292C295D292EF25E04481FF1215F512D5
:0A162000168FC292D295C293D293A6
:01162A00229D
:0B136F00900089EBF0A3EAF0A3E9F086
:10137A00C292C295D2927FBF1215F5E4FD12168F62
:10138A00900089E0FBA3E0FAA3E0F98D827583005F
:10139A00EF12010E0DEDB408E4C292D295C293D2B7
:0113AA0093AF
:0113AB00221F
:10002600200B097B017A0079A012136F2009279013
:1000360000A2E0FFC4540F90009AF0EF540FA3F013
:100046009000A1E0FFC4540F90009CF0EF540FA362
:10005600F09000A080259000A6E0FFC4540F900009
:100066009AF0EF540FA3F09000A4E0FFC4540F9051
:10007600009CF0EF540FA3F09000A3E0FFC4540FD0
:1000860090009EF0EF540FA3F07B017A00799A124C
:0300960008F72246
:0900A600C2AF53C71843C7822200
:0917360053C77FE4F5C6D2AF22CF
:0B000E001200A675C65A75C6A5002298
:10165E00AD07AC06ECF5C3EDF5C453C5FC43C501AF
:09166E0012000E121736AFC22261
:10162B00AB07AA06EAF5C3EBF5C453C5FC43C502E9
:0A163B00AF058FC212000E02173631
:1016BD00EE54FEF5C3E4F5C453C5FC43C503120057
:0416CD000E021736BC
:020C0100C190A0
:1016E40090FF10E4F0A3F0A3EEF0A3EFF0A3E4F076
:0116F40022D3
:1016F50090FF20E4F0A3F0A3EEF0A3EFF0A3E4F055
:0117050022C1
:1017060090FF30E4F0A3F0A3EEF0A3EFF0A3E4F033
:0117160022B0
:10145500AB0743BA80EB64016021E4F59575F10EA5
:10146500EBFD7C007E807F0012014290FFF0EEF0E4
:10147500A3EFF0A3EBF075F5CE800375950E53BA87
:021485007F22C4
:100C0300C108C107C105C1064100C8004100C700B2
:100DBF00900089EEF0A3EFF07003EE648460619011
:100DCF000089E0FEA3E07802C333CE33CED8F9FB1F
:100DDF00AA06E4F9F8FF7E807D517C0112132BEFF8
:100DEF00F4049000CAF0900089E0FEA3E0FBAA068D
:100DFF00E4F9F8FF7E807D517C0112132BE47B0414
:100E0F00FAF9F812132BC3E49FFFE49EFE74019DC1
:100E1F00FDE49CFC78081201F99000C9EFF0800CFA
:100E2F009000CA74F4F09000C974FFF0D2AF7598B7
:100E3F0050D2AC438E159000CAE0F5D79000C9E0B0
:030E4F00F5D622B3
:1013E600900089EBF0A3EAF0A3E9F0900089E0FB16
:1013F600A3E0FAA3E0F91200B6601C2008FDD208AB
:10140600900089E0FBA3E475F0011201CDA9F0FA82
:081416001200B6F59980D42202
:0B13AC00900089EBF0A3EAF0A3E9F049
:1013B700E4FF9000C8E0FEEFD39E501D74002FF8A5
:1013C700E2FE900089E0FBA3E475F0011201CDA9CC
:0E13D700F0FAEE1200FC0F80D9E49000C8F08E
:0113E50022E5
:030023000212E3E3
:1012E300C0E0C083C082C0D075D000C000C007304A
:1012F30098229000C8E0FF04F074002FF8E599F2FB
:10130300C2989000C7E4F0D207A3E0B41E06D20649
:101313007813E4F2309904C208C299D007D000D000
:08132300D0D082D083D0E0326B
:101570003007069000C7E004F09000C7E0D394085D
:101580004015E4F0C207A3E0FF24FFF8E260067410
:08159000002FF8E4F2D205225D
:100C1300C103C104C101C100C102410073006020CE
:100C2300005300000000000000000000000000006E
:100C330000000000000000000000000000000000B1
:060C4300000041004E001C
:0B10E800900089EBF0A3EAF0A3E9F010
:1010F300E4FF7E10EE2408FDE433FC900089E0FB5E
:10110300A3E0FAA3E0F98D828C831200CFFD8E82D7
:101113007583001200CF6D60050EEEB418D6EEB4E1
:1011230018207E10900089E0FBA3E0FAA3E0F98E7B
:10113300827583001200CFFDEF25E02DFF0EEEB484
:0211430018E2B0
:011145002287
:100FFC00900094E0FEA3E0FF90004FE0FCA3E0FD26
:0E100C00900096EEF0A3EFF0A3ECF0A3EDF051
:10101A00900098E0FEA3E0FF900096E0FCA3E0FDBC
:10102A00D39FEC9E40028009900098E0FEA3E0FF67
:10103A00C3ED9FFBEC9EFAC3E49B74039A500CC366
:10104A00EB94F0EA940450037F0022C3E49B740AF1
:10105A009A500CC3EB9480EA940E50037F0122C38A
:10106A0074809B740E9A5009C3EA941F50037F023E
:03107A00227F03CF
:01107D002250
:080C9200900094EEF0A3EFF0D6
:100C9A00B204200412900094E0FFA3E090004FCF2A
:100CAA00F0A3EFF0020D1C30024530031B20006256
:100CBA00120FFC90004EE0FE04F074532EF582E40D
:100CCA003400F583EFF0804A90004FE0FEA3E0FF86
:100CDA00C3900095E09FFF900094E09EFEC3E49FBE
:100CEA00741C9E502DC3EE94245027D203802320D7
:100CFA000004D202801C120FFC7E00900051EEF01C
:100D0A00A3EFF06402700B900073E004F0E490002B
:100D1A00C3F090004EE0B42008E4F0C202D200D240
:010D2A0001C7
:010D2B0022A5
:090C49004100BC004200BD0000A6
:10148700900090EEF0A3EFF0A3ECF0A3EDF043BAD9
:1014970080AE02AF031216E4900090E0FEA3E0FFD7
:1014A7001216F5900092E0FEA3E0FF12170653BA5A
:0214B7007F2292
:0300B300020A231B
:100A2300C0E0C0F0C083C082C0D075D000C000C099
:0D0A330001C002C003C004C005C006C0071A
:100A4000E5F620E603020AF953F6BF9000BCE01475
:100A500060251460402402705A9000BDE0FCA3E0C1
:100A6000FDC374FF9DFF74079CFEED2401FDE43C73
:100A7000FC7B017A0080399000BDE0FEA3E0FFC35B
:100A800074FF9FFD74079EFCEF2401FBE43EFA7F98
:100A9000017E00801B9000BDE0FCA3E0FD2401FF6F
:100AA000E43CFEC374FF9DFB74079CFA7D017C004F
:100AB0001214879000BDE0FEA3E0FFEE3395E0FD49
:100AC000FCE47BFE7A07F9F8D31201E3501A900098
:100AD000BDE4F0A3F09000BCE0B40204E4F080199F
:100AE0009000BCE004F0801130100E9000BEE004D5
:090AF000F070069000BDE004F076
:100AF900D007D006D005D004D003D002D001D00051
:0B0B0900D0D0D082D083D0F0D0E032FA
:100C52004600830077007B007F4200750000C111CF
:040C620041007400D9
:10107E00E4900089F0E490008AF090008AE0FDC3CD
:10108E0094045049900089E075F004A47C002DFF73
:10109E00EC35F0FE12165E900089E025E02483F513
:1010AE0082E43400F583E0FCA3E0F5828C83C083F8
:1010BE00C08290008AE0D082D0832582F582E4350A
:1010CE0083F583EFF090008AE004F080AD90008904
:0910DE00E004F0E0C39403409C1F
:0110E70022E6
:0E0B1400900089EBF0A3EAF0A3E9F0A3EDF066
:100B2200E4A3F090008DE0FFC39404504C90008940
:100B3200E0FBA3E0FAA3E0F98F827583001200CFF5
:100B420024D0FF90008CE025E02481F582E434007B
:100B5200F583E0FCA3E0F5828C83C083C082900021
:100B62008DE0D082D0832582F582E43583F583EF50
:100B7200F090008DE004F080AAE4FFFE1216BDE4BE
:100B820090008DF0E490008EF090008EE0FDC39412
:100B920004503C90008DE0FC75F004A4FFED7A0057
:100BA2002FFFEA35F0FEEC25E02483F582E43400E1
:100BB200F583E0FAA3E0F5828A832DF582E435839A
:100BC200F583E0FD12162B90008EE004F080BA90BF
:0B0BD200008DE004F0E0C3940340A994
:010BDD0022F5
:100E5200300D09900075E07003C211F0201152901C
:100E6200009EE0704CA3E07048FF900074E025E023
:100E72002483F582E43400F583E0FCA3E0F5828C60
:100E8200832FF582E43583F583E0FE749A2FF58291
:100E9200E43400F583E0FDEEB505050FEFB404CAB6
:100EA200EFB4040D900074E004A3F0A37402F0D236
:100EB20011900076E0601B300D0E900075E0FF127D
:100EC2000D2C900076E014F0900076E07004900013
:100ED20075F0900074E004F0E0D394024002E4F074
:010EE20022ED
:101545003232340073746172740030003235350004
:1015550064656661756C74006830187A10385A4293
:0B1565004A52A202C2A89062E2E09885
:0E0C66004100C4004100C300C1124100C2FFA2
:1016D100D2AF53890FE4F58CF58AD2A9D2A8D2B83A
:0316E100D28C2286
:030003000212499D
:10124900C0E0C0F0C083C082C0D075D000C000C06B
:0D12590001C002C003C004C005C006C007EC
:10126600C28CAF8CEFFEAD8A7C00E42DFFEC3EFE17
:05127600120C92D28C65
:10127B00D007D006D005D004D003D002D001D000C7
:0B128B00D0D0D082D083D0F0D0E03271
:03000B0002159843
:10159800C0E0C083C082C0D09000C3E004F0E0B4D3
:1015A800050CE4F0C203C200C212C204C202D0D0C9
:0715B800D082D083D0E032A5
:10071C002001030208F69000C2E0FF64906010EF25
:10072C0064A8600BEFF46007D20AE49000B2F0EF1B
:10073C00B4FF107B017A0079531210E89000C2EFDD
:10074C00F0D2129000C2E070030208C1249E603205
:10075C0024D2700302081924E8700302086324C829
:10076C0070030207EE24FE606824E370030208CCD9
:10077C00245D60030208D51214E9E49000B2F00283
:10078C0008E42012030208E4C2129000C4E004F052
:10079C00E0D394034002E4F09000C4E0146014141D
:1007AC00601814601E240360030208E4C209C20B23
:1007BC000208E4D209C20B0208E4C209D20BC286B9
:1007CC000208E4C209C20BE49000C4F0C20A020899
:1007DC00E4C211E4900076F0900075F01217270235
:1007EC0008E4900073E0D39405400C7405F07BFF93
:1007FC007A1579451213E62012030208E4C2127B23
:10080C00FF7A1579491213E6B2100208E4900073CE
:10081C00E0D3940540299000D2E0940F501BE004E3
:10082C00F0E0FF1214557F007E021216BD9000D22C
:10083C00E0FD7F007E0212162B9000737405F020F1
:10084C0012030208E4C2129000D2E0C3940F4003DA
:10085C000208E4E0048043900073E0D39405402A3E
:10086C009000D2E0D39401401BE014F0E0FF12148E
:10087C00557F007E021216BD9000D2E0FD7F007EF7
:10088C000212162B9000737405F030124BC21290AA
:10089C0000D2E0D394014040E014F0E0FF12145574
:1008AC007F007E021216BD9000D2E0FD7F007E021A
:1008BC0012162B80237BFF7A15794F1213E68018C2
:1008CC007BFF7A1579511213E67BFF7A1579551255
:1008DC0013E69000C274FFF020000F9000C274FF6A
:0A08EC00F0C201E4900073F0C212A4
:0108F60022DF
:1014B900E4F594F593F580D280F596F595F5A0FFBE
:1014C9007EC2120DBF12107E1214E91217171216DE
:1014D900D17F007E0212165E9000D2EFF002145501
:080C7400C10EC10F4100D300C5
:1017170075D34C75D28053D10F43D18043AF40224C
:0300A3000211F84F
:1011F800C0E0C0F0C083C082C0D075D000C000C0BD
:0D12080001C002C003C004C005C006C0073D
:101215009000D3E0B40204E4F0D20F9000D3E004D0
:09122500F0D20E1215701215DA58
:10122E00D007D006D005D004D003D002D001D00014
:0B123E00D0D0D082D083D0F0D0E032BE
:10114600616C61726D20686173206265656E2073E3
:10115600657420617420000D0A007965730D0A001C
:1011660072657475726E0073657420616C61726D60
:10117600007365742074696D650064617465006F41
:101186006E006F66660072616E646F6D006C6564FA
:0E1196000070776D00060908040203060303CB
:100C7C0052001E1166116D117711801185118811AA
:050C8C008C119311978B
:0611A400E49390008FF0BF
:0B11AA00900089EBF0A3EAF0A3E9F04D
:1011B500E4FF90008FE0FEEFC39E502D90008CE081
:1011C500FBA3E0FAA3E0F98F827583001200CFFD3F
:1011D500900089E0FBA3E0FAA3E0F98F8275830014
:1011E5001200CFB505030F80C9EEB507037F0122B5
:0211F5007F0079
:0111F70022D5
:10050E0030070302071B20050302071B7B017A003D
:10051E0079301213AC90001EE0FEA3E0AA06F97B20
:10052E00FF90008C7401F0A37400F0A37430F0906F
:10053E00119B1211A4EF60097B017A00793012131E
:10054E00E6900020E0FEA3E0AA06F97BFF90008C67
:10055E007401F0A37400F0A37430F090119C12118A
:10056E00A4EF602B7B017A00793A900039E024D019
:10057E00FD120B147BFF7A1179461213E67B017A7A
:10058E0000793A1213E67BFF7A11795D1213E69029
:10059E000022E0FEA3E0AA06F97BFF90008C740116
:1005AE00F0A37400F0A37430F090119D1211A4907A
:1005BE000024E0FEA3E0AA06F97BFF90008C7401F4
:1005CE00F0A37400F0A37430F090119E1211A4EFFA
:1005DE006006D209D20AC20B900026E0FEA3E0AA62
:1005EE0006F97BFF90008C7401F0A37400F0A374E5
:1005FE0030F090119F1211A4EF6002D20A900028E1
:10060E00E0FEA3E0AA06F97BFF90008C7401F0A334
:10061E007400F0A37430F09011A01211A4EF6003D7
:10062E001214E990002AE0FEA3E0AA06F97BFF90DF
:10063E00008C7401F0A37400F0A37430F09011A13B
:10064E001211A4EF6006C209D20AD20B90002CE060
:10065E00FEA3E0AA06F97BFF90008C7401F0A37450
:10066E0000F0A37430F09011A21211A4EF60589014
:10067E000033E0FF7E007C007DC8120130EF248144
:10068E00FFEE34DAFEC006C007A3E0FF7E001201C3
:10069E0030EF2481FFEE34DAFEC006C007A3E0FF80
:1006AE007E007C007DC8120130EF2481FFEE34DA2B
:1006BE00AB07FAD005D004D007D0061214877BFF03
:1006CE007A1179601213E690002EE0FEA3E0AA06DE
:1006DE00F97BFF90008C7401F0A37400F0A37430CA
:1006EE00F09011A31211A4EF6021900033E024D0FA
:1006FE0075F00AA4FFA3E024D02FFF9000D2F012D1
:0E070E0014557BFF7A1179601213E6C20522A2
:100F7C000215BFE493A3F8E493A34003F68001F2B7
:100F8C0008DFF48029E493A3F85407240CC8C33376
:100F9C00C4540F4420C8834004F456800146F6DF45
:100FAC00E4800B0102040810204080900BDEE47EEC
:100FBC00019360BCA3FF543F30E509541FFEE4933A
:100FCC00A360010ECF54C025E060A840B8E493A301
:100FDC00FAE493A3F8E493A3C8C582C8CAC583CA2C
:100FEC00F0A3C8C582C8CAC583CADFE9DEE780BEE4
:010C91000062
:1000B600BB010689828A83E0225002E722BBFE0248
:0900C600E32289828A83E493227B
:1000CF00BB010CE58229F582E5833AF583E02250E6
:1000DF0006E92582F8E622BBFE06E92582F8E22230
:0D00EF00E58229F582E5833AF583E493224A
:1000FC00BB010689828A83F0225002F722BBFE01E3
:02010C00F322DC
:10010E00F8BB010DE58229F582E5833AF583E8F027
:10011E00225006E92582C8F622BBFE05E92582C8D3
:02012E00F222BB
:10013000EF8DF0A4A8F0CF8CF0A428CE8DF0A42EE3
:02014000FE229D
:10014200BC000BBE0029EF8DF084FFADF022E4CCA1
:10015200F875F008EF2FFFEE33FEEC33FCEE9DEC6A
:10016200984005FCEE9DFE0FD5F0E9E4CEFD22EDB0
:10017200F8F5F0EE8420D21CFEADF075F008EF2FFA
:10018200FFED33FD4007985006D5F0F222C398FDEB
:050192000FD5F0EA2288
:10019700C2D5EC30E709B2D5E4C39DFDE49CFCEE83
:1001A70030E715B2D5E4C39FFFE49EFE120142C3B8
:1001B700E49DFDE49CFC800312014230D507C3E4B3
:0601C7009FFFE49EFE22F2
:1001CD00A3F8E0C5F025F0F0E582158270021583E5
:0601DD00E0C838F0E82242
:10132B00C2D5E830E70FB2D5E4C39BFBE49AFAE4ED
:10133B0099F9E498F8EC30E717B2D5121361120261
:10134B0049E4C39BFBE49AFAE499F9E498F8800327
:10135B0012024930D50DE4C39FFFE49EFEE49DFDD0
:04136B00E49CFC22E0
:1001E300EB9FF5F0EA9E42F0E99D42F0EC6480C893
:0601F30064809845F02233
:1001F900E86010ECA2E713FCED13FDEE13FEEF131C
:04020900FFD8F02208
:101296009000CB1202DB7810EC4D4E4F70047CA50B
:1012A6007DA5C3EC13FCED13FDEE13FEEF13FF500B
:1012B60010EC64CCFCED644CFDEE644EFEEF64CEA7
:1012C600FFD8DF9000CB1202E7EE547FFE2290009B
:0D12D600CBEEF0EFA3F0A374A5F0A3F0227F
:10020D0075F008758200EF2FFFEE33FECD33CDCCA8
:10021D0033CCC58233C5829BED9AEC99E58298402B
:10022D000CF582EE9BFEED9AFDEC99FC0FD5F0D608
:10023D00E4CEFBE4CDFAE4CCF9A88222B800C1B932
:10024D000059BA002DEC8BF084CFCECDFCE5F0CB70
:10025D00F97818EF2FFFEE33FEED33FDEC33FCEBA9
:10026D0033FB10D703994004EB99FB0FD8E5E4F964
:10027D00FA227818EF2FFFEE33FEED33FDEC33FC51
:10028D00C933C910D7059BE99A4007EC9BFCE99A45
:10029D00F90FD8E0E4C9FAE4CCFB2275F010EF2F8A
:1002AD00FFEE33FEED33FDCC33CCC833C810D7078A
:1002BD009BEC9AE899400AED9BFDEC9AFCE899F8C5
:0E02CD000FD5F0DAE4CDFBE4CCFAE4C8F92258
:0C02DB00E0FCA3E0FDA3E0FEA3E0FF2296
:0C02E700ECF0A3EDF0A3EEF0A3EFF0228A
:00000001FF
